:100000000C942A000C943C000C943C000C943C0092
:100010000C943C000C943C000C942A030C943C007F
:100020000C943C000C943C000C943C000C943C0060
:100030000C943C000C943C000C943C000C943C0050
:100040000C943C000C943C000C943C000C943C0040
:100050000C943C0011241FBECFE5D8E0DEBFCDBF1D
:1000600020E0A0E6B0E001C01D92A236B207E1F7A1
:100070000E943E000C94C9050C9400000E944D01A2
:100080000E94D6010E94DE0189E00E94D9012FEF73
:1000900083ED90E3215080409040E1F700C00000E4
:1000A00080E00E9466010E94ED010E9477046F319A
:1000B000D0F70E94BD0181E00E94D9012FEF83EDAE
:1000C00090E3215080409040E1F700C000000E9482
:1000D000ED010E947704C62F84E10E94D9012FEF21
:1000E00083ED90E3215080409040E1F700C0000094
:1000F0000E94ED010E947704D62F89E00E94D90169
:100100002FEF83ED90E3215080409040E1F700C055
:100110000000CF31F0F0CD1708F4B7C083E00E94A3
:1001200066012FEF83ED90E3215080409040E1F78E
:1001300000C000000E94BD012FEF83ED90E321502D
:1001400080409040E1F700C0000080E00E9466011E
:10015000AACFDF31E8F0DC17D8F082E00E94660118
:100160002FEF83ED90E3215080409040E1F700C0F5
:1001700000000E94BD012FEF83ED90E321508040ED
:100180009040E1F700C0000080E00E9466018BCF44
:1001900081E00E9466012FEF83ED90E321508040C3
:1001A0009040E1F700C000000E94BD0181E00E9484
:1001B000D9012FEF83ED90E3215080409040E1F78B
:1001C00000C000000E94ED010E947704C62F84E168
:1001D0000E94D9012FEF83ED90E3215080409040A1
:1001E000E1F700C000000E94ED010E947704D62FC5
:1001F00089E00E94D9012FEF83ED90E321508040E8
:100200009040E1F700C00000CF31F0F0CD1708F4C6
:1002100040C083E00E9466012FEF83ED90E3215000
:1002200080409040E1F700C000000E94BD012FEF28
:1002300083ED90E3215080409040E1F700C0000042
:1002400080E00E9466012FCFDF3108F4A1CFDC17D8
:1002500008F49ECF82E00E9466012FEF83ED90E3C9
:10026000215080409040E1F700C000000E94BD0195
:100270002FEF83ED90E3215080409040E1F700C0E4
:10028000000080E00E9466010ECFDF3108F480CFCD
:1002900064CFDF3108F47CCFDDCF61E081E00E94E4
:1002A000240261E082E00E94240261E085E00E9475
:1002B000240261E083E00E94240261E084E00E9465
:1002C000240261E086E00E9424020895CF93C82FA3
:1002D00061E085E00E94A70261E086E00E94A7023B
:1002E000C130B9F028F0C23029F1C330A1F143C0C8
:1002F00061E081E00E94A70260E082E00E94A70224
:1003000061E083E00E94A70260E084E00E94A7020F
:1003100032C060E081E00E94A70261E082E00E94BA
:10032000A70260E083E00E94A70261E084E00E94EF
:10033000A70221C060E081E00E94A70260E082E0A5
:100340000E94A70261E083E00E94A70260E084E0CF
:100350000E94A70210C060E083E00E94A70260E054
:1003600084E00E94A70261E081E00E94A70260E0B1
:1003700082E00E94A702CF91089560E081E00E9490
:10038000A70260E082E00E94A70260E083E00E9492
:10039000A70260E084E00E94A70260E085E00E947E
:1003A000A70260E086E00E94A70208950E945D0314
:1003B00008950E946B030E947403089561E085E232
:1003C0000E9424020E94770386E40E9485030E9413
:1003D0008E031FBC17BC16BC0895CF92DF92EF921C
:1003E000FF9285E48EBD80E288BF08B605FEFDCF92
:1003F00066B577B580E090E00E94A6046B017C01B1
:1004000085E08EBD80E288BF08B605FEFDCF66B5EB
:1004100077B580E288BF80E090E00E94A604A70143
:1004200096010E94980320E030E040E852E40E94E8
:10043000340520E030E048E652E40E940504FF90D5
:10044000EF90DF90CF9008959DEC899F912D11241E
:10045000292F269526952695220F322F330F330FFD
:10046000230F821B282F969596959695662319F053
:100470006130C9F10895913091F028F09230D9F0AF
:10048000933029F108953AB381E090E002C0880FDB
:10049000991F2A95E2F7809583238ABB089537B385
:1004A00081E090E002C0880F991F2A95E2F78095BD
:1004B000832387BB089534B381E090E002C0880FA6
:1004C000991F2A95E2F78095832384BB089531B361
:1004D00081E090E002C0880F991F2A95E2F780958D
:1004E000832381BB0895913089F028F09230C9F0C0
:1004F000933011F108953AB381E090E002C0880F83
:10050000991F2A95E2F7832B8ABB089537B381E0C0
:1005100090E002C0880F991F2A95E2F7832B87BBD2
:10052000089534B381E090E002C0880F991F2A95A6
:10053000E2F7832B84BB089531B381E090E002C0E1
:10054000880F991F2A95E2F7832B81BB08959DECB4
:10055000899F912D1124292F269526952695220FC6
:10056000322F330F330F230F821B282F969596952A
:100570009695662319F06130C9F10895913091F094
:1005800028F09230D9F0933029F108953BB381E0FF
:1005900090E002C0880F991F2A95E2F78095832387
:1005A0008BBB089538B381E090E002C0880F991F9B
:1005B0002A95E2F78095832388BB089535B381E0BF
:1005C00090E002C0880F991F2A95E2F78095832357
:1005D00085BB089532B381E090E002C0880F991F77
:1005E0002A95E2F78095832382BB0895913089F0A4
:1005F00028F09230C9F0933011F108953BB381E0B7
:1006000090E002C0880F991F2A95E2F7832B8BBBDD
:10061000089538B381E090E002C0880F991F2A95B1
:10062000E2F7832B88BB089535B381E090E002C0E8
:10063000880F991F2A95E2F7832B85BB089532B363
:1006400081E090E002C0880F991F2A95E2F7832B82
:1006500082BB08951F920F920FB60F9211242F9311
:100660003F934F935F936F937F938F939F93AF933A
:10067000BF93EF93FF93E0916000F091610030979A
:1006800009F00995FF91EF91BF91AF919F918F91E3
:100690007F916F915F914F913F912F910F900FBE7E
:1006A0000F901F90189583B7816083BF83B78D7FAC
:1006B00083BF83B7846083BF089583B7886083BF97
:1006C00083B7806483BFBB9A83B78F7E83BF83B7B2
:1006D000806283BF0895982F80E064E670E00E94F6
:1006E000A10561506CBF08950E94530308958F9A2D
:1006F00085B5886085BD85B5806485BD85B580611B
:1007000085BD85B5806285BD0895982F80E064E63B
:1007100070E00E94A105615063BD089585B58160B8
:1007200085BD85B5826085BD85B5846085BD08952C
:100730005058BB27AA270E94B0030C94FA040E94C9
:10074000EC0438F00E94F30420F039F49F3F19F4D0
:1007500026F40C94E9040EF4E095E7FB0C94E30412
:10076000E92F0E940B0558F3BA1762077307840735
:10077000950720F079F4A6F50C942D050EF4E0957C
:100780000B2EBA2FA02D0B01B90190010C01CA014B
:10079000A0011124FF27591B99F0593F50F4503EF6
:1007A00068F11A16F040A22F232F342F4427585FE8
:1007B000F3CF469537952795A795F0405395C9F700
:1007C0007EF41F16BA0B620B730B840BBAF09150B8
:1007D000A1F0FF0FBB1F661F771F881FC2F70EC057
:1007E000BA0F621F731F841F48F48795779567952A
:1007F000B795F7959E3F08F0B0CF9395880F08F016
:100800009927EE0F9795879508950E9419040C94E7
:10081000FA040E94F30458F00E94EC0440F029F41A
:100820005F3F29F00C94E30451110C942E050C94B5
:10083000E9040E940B0568F39923B1F3552391F362
:10084000951B550BBB27AA2762177307840738F03F
:100850009F5F5F4F220F331F441FAA1FA9F335D09C
:100860000E2E3AF0E0E832D091505040E695001C50
:10087000CAF72BD0FE2F29D0660F771F881FBB1F0A
:10088000261737074807AB07B0E809F0BB0B802DE8
:10089000BF01FF2793585F4F3AF09E3F510578F014
:1008A0000C94E3040C942E055F3FE4F3983ED4F3DC
:1008B000869577956795B795F7959F5FC9F7880FE8
:1008C000911D9695879597F90895E1E0660F771F3A
:1008D000881FBB1F621773078407BA0720F0621BCB
:1008E000730B840BBA0BEE1F88F7E09508950E94F6
:1008F000130588F09F5798F0B92F9927B751B0F09A
:10090000E1F0660F771F881F991F1AF0BA95C9F793
:1009100014C0B13091F00E942D05B1E008950C94FF
:100920002D05672F782F8827B85F39F0B93FCCF3B2
:10093000869577956795B395D9F73EF49095809510
:10094000709561957F4F8F4F9F4F0895E89409C030
:1009500097FB3EF490958095709561957F4F8F4FF2
:100960009F4F9923A9F0F92F96E9BB279395F69508
:10097000879577956795B795F111F8CFFAF4BB0F86
:1009800011F460FF1BC06F5F7F4F8F4F9F4F16C0EA
:10099000882311F096E911C0772321F09EE8872F74
:1009A000762F05C0662371F096E8862F70E060E030
:1009B0002AF09A95660F771F881FDAF7880F9695A9
:1009C000879597F9089597F99F6780E870E060E050
:1009D00008959FEF80EC089500240A9416161706D8
:1009E00018060906089500240A9412161306140620
:1009F00005060895092E0394000C11F4882352F083
:100A0000BB0F40F4BF2B11F460FF04C06F5F7F4F3A
:100A10008F4F9F4F089557FD9058440F551F59F021
:100A20005F3F71F04795880F97FB991F61F09F3FDB
:100A300079F087950895121613061406551FF2CF04
:100A40004695F1DF08C0161617061806991FF1CF54
:100A500086957105610508940895E894BB2766277B
:100A60007727CB0197F908950E9447050C94FA0463
:100A70000E94EC0438F00E94F30420F0952311F05A
:100A80000C94E3040C94E90411240C942E050E94A8
:100A90000B0570F3959FC1F3950F50E0551F629FB2
:100AA000F001729FBB27F00DB11D639FAA27F00DC7
:100AB000B11DAA1F649F6627B00DA11D661F829FEE
:100AC0002227B00DA11D621F739FB00DA11D621FD3
:100AD000839FA00D611D221F749F3327A00D611DF0
:100AE000231F849F600D211D822F762F6A2F1124D2
:100AF0009F5750409AF0F1F088234AF0EE0FFF1F05
:100B0000BB1F661F771F881F91505040A9F79E3F5B
:100B1000510580F00C94E3040C942E055F3FE4F340
:100B2000983ED4F3869577956795B795F795E795B1
:100B30009F5FC1F7FE2B880F911D9695879597F9BA
:100B4000089597FB072E16F4009407D077FD09D07F
:100B50000E94B50507FC05D03EF4909581959F4F06
:100B60000895709561957F4F0895AA1BBB1B51E1B5
:100B700007C0AA1FBB1FA617B70710F0A61BB70B0D
:100B8000881F991F5A95A9F780959095BC01CD01B2
:060B90000895F894FFCF68
:00000001FF
